:100000000C94B5140C9404150C9404150C9404155C
:100010000C9404150C9404150C9404150C940415FC
:100020000C9404150C9404150C9421300C940415B4
:100030000C9403250C9404150C9404150C940415CD
:100040000C9404150C94272B0C9404150C94041593
:100050000C9404150C9404150C9404150C940415BC
:100060000C9404150C9404150C9404150C940415AC
:100070000C9404150C9404150C9404150C9404159C
:100080000C9404150C9404150C9404150C9404158C
:100090000C9404150C9404150C9404150C9404157C
:1000A0000C9404150C9404150C940415541CE017BE
:1000B000E61707180D18CA19D019EC18F218FA1912
:1000C0001C1A361A501A651ABB1AF81A0E1C331C61
:1000D000151B311B501B751B8E1BB31BD31BEC1B3D
:1000E0000E3131311D3231311D32763198311D32B0
:1000F000EA31FC31000000000000000000000000B8
:10010000000000002A002B0028000000000028004A
:1001100000000000000000000000000000000000DF
:1001200000000000000000000000290000000000A6
:10013000000000002C001E023402200221022202D4
:10014000240234002602270225022E0236002D004A
:100150003700380027001E001F0020002100220069
:1001600023002400250026003302330036022E002F
:10017000370238021F0204020502060207020802C3
:1001800009020A020B020C020D020E020F021002FB
:1001900011021202130214021502160217021802AB
:1001A00019021A021B021C021D022F00310030002E
:1001B00023022D0235000400050006000700080098
:1001C00009000A000B000C000D000E000F001000CB
:1001D000110012001300140015001600170018007B
:1001E00019001A001B001C001D002F0231023002F2
:1001F00035024C000000000000000000000000007C
:1002000000000000000000000000000000000000EE
:1002100000000000000000000000000000000000DE
:1002200000000000000000000000000000000000CE
:1002300000000000000000000000000000000000BE
:101BD00000000000FF00FF00FF00FF00FF00FF000B
:101BE000FF00FF00FF00FF00FF00FF00FF00FF00FD
:101BF000FF00FF00FF00FF00FF00FF00FF000000EC
:101C000000000000000000000000000000000000D4
:101C100000000000000000000000000000000000C4
:101C20000000000000000000000000000000080CA0
:101C300000000000000000000000000000000000A4
:101C40000000000000000000000000000000000094
:101C50000000000000000000000000000000000084
:101C60000000000000000000000000000000000074
:101C70000000000000000000000000000000000064
:101C80000000000000000000000000000000000054
:101C90000000000000000000000000000000000044
:101CA0000000000000000000000000000000000034
:101CB0000000000000000000000000000000000024
:101CC0000000000000000000000000000000000014
:101CD00001010101140000000000000000000000EC
:101CE00000000000000000000000000000000000F4
:101CF00000000000000000000000000000000101E2
:101D000001011400000000000000000000000000BD
:101D100000000000000000000000000000000000C3
:101D200000000000000000000000000001010101AF
:101D3000140000000000000000000000000000008F
:101D40000000000000000000000000000000000093
:101D50000000000000000000000001010101146FFC
:101D60002DA527652AD127FC246F2DAA279916C7F0
:101D700017FC244F7574206F662072616E67652EA4
:101D80000A00456E746572206E6577206465666131
:101D9000756C742064696D6D6572206C6576656C18
:101DA0002028312D3136293E2000456E7465722081
:101DB0006E65772064656661756C74206261636B23
:101DC0006C6967687420656E61626C652028312DCE
:101DD0003136293E2000456E746572206E6577208D
:101DE0006D617472697820736574757020776169AC
:101DF0007420696E206379636C65732028312D32FD
:101E00003535293E2000456E746572206E65772059
:101E10007265706561742074696D6520696E206DEE
:101E2000732028312D3939293E2000456E746572A2
:101E3000206E657720686F6C642074696D65206919
:101E40006E206D732028312D393939293E20004507
:101E50006E746572206E6577206D6F757365206D89
:101E60006F76656D656E74206D756C7469706C69E4
:101E700065722028312D3939293E2000456E746560
:101E800072206E65772062617365206D6F75736572
:101E9000206D6F76656D656E742028312D39392976
:101EA0003E2000456E746572206E657720646F7504
:101EB000626C657461702064656C61792074696D11
:101EC0006520696E206D732028312D393939293EFE
:101ED0002000456E746572206E65772074617020F5
:101EE00074696D6520696E206D732028312D393934
:101EF00039293E2000456E746572206E6577206436
:101F000065626F756E63652074696D6520696E200A
:101F10006D732028312D3939293E20005365743ADC
:101F200000456E746572206E657720646566617524
:101F30006C74206C617965722028302D39293E201F
:101F40000042797465732028686578293E20004135
:101F50006464726573732028686578293E200020C8
:101F6000532D3078005D20432D3078000A5B0055FA
:101F700073696E672064656661756C7420226861A0
:101F80006972207472696767657222206465626F86
:101F9000756E636520616C676F726974686D20612E
:101FA0006E6420726573657474696E67206465621F
:101FB0006F756E63652074696D652E0A00557369CF
:101FC0006E6720616C7465726E6174652022636F48
:101FD0006E6669726D22206465626F756E6365203E
:101FE000616C676F726974686D20616E64207265E0
:101FF00073657474696E67206465626F756E63657E
:102000002074696D652E0A004E756D206C6F636BD0
:10201000206973206C696E6B656420746F2074682E
:10202000652073797374656D206E756D206C6F63B8
:102030006B2E0A004E756D206C6F636B2077696C98
:102040006C2066756E6374696F6E20696E6465706E
:10205000656E64656E746C79206F662074686520A7
:1020600073797374656D206E756D206C6F636B2E64
:102070000A004B6579626F6172643A204E4B524F91
:102080002C206D656469612F706F776572206B65B8
:1020900079733A205945532C206D6F7573653A203A
:1020A0005945532E0A004B6579626F6172643A207C
:1020B0004E4B524F2C206D656469612F706F7765B0
:1020C00072206B6579733A205945532C206D6F75DA
:1020D00073653A204E4F2E0A004B6579626F61722C
:1020E000643A20364B524F2C206D656469612F7025
:1020F0006F776572206B6579733A205945532C20B0
:102100006D6F7573653A205945532E0A004B6579FA
:10211000626F617264206973206C696D69746564B3
:1021200020746F207374616E6461726420364B5248
:102130004F20626F6F742D636F6D70617469626C94
:1021400065206B6579626F617264206F6E6C792EA9
:102150000A005363726F6C6C206C6F636B2077693D
:102160006C6C206E6F74206166666563742077699D
:102170006E206C6F636B2E0A0057696E646F777305
:10218000206B65792077696C6C20626520646973C7
:1021900061626C6564207768656E207363726F6C32
:1021A0006C206C6F636B20697320656E61626C6577
:1021B000642E0A004E756D206C6F636B2077696C1E
:1021C0006C206E6F7420616666656374206E756D39
:1021D00062657220726F772E0A004E756D626572AD
:1021E00020726F772077696C6C206265207377614D
:1021F0007070656420666F72206E756D706164200A
:102200006B657973207768656E206E756D206C6FD5
:10221000636B20697320656E61626C65642E0A00D1
:10222000496E707574206E6F74207265636F676E8F
:10223000697A65642E0A000A54696D696E67204DDB
:10224000656E753A0A312920536574206465626FA2
:10225000756E63652074696D650A32292053657453
:10226000206D617820686F6C642074696D652066EC
:102270006F72207461700A332920536574206D6178
:10228000782064656C61792074696D6520666F7271
:1022900020646F75626C65207461700A3429205364
:1022A00065742062617365206D6F757365206D6F55
:1022B00076656D656E740A352920536574206D6FDF
:1022C000757365206D6F76656D656E74206D756CC8
:1022D0007469706C6965720A362920536574206DC3
:1022E000696E20686F6C642074696D6520666F721A
:1022F000207265706561740A3729205365742072F5
:10230000657065617420706572696F640A38292090
:10231000536574206D61747269782073657475708B
:1023200020776169740A3929204261636B0A3E2073
:10233000000A436F6E666967204D656E753A0A3113
:102340002920546F67676C65207669727475616CBB
:10235000206E756D207061640A322920546F6767A2
:102360006C652077696E206C6F636B206F6E2073D5
:1023700063726F6C6C206C6F636B0A33292053653A
:10238000742064656661756C74206C617965720A8D
:10239000342920546F67676C65206B6579626F61C3
:1023A00072642066656174757265730A35292054FC
:1023B0006F67676C6520756E6C696E6B206E756DEE
:1023C000206C6F636B0A3629205365742064656640
:1023D00061756C742064696D6D6572206C657665DD
:1023E0006C0A3729205365742064656661756C74C6
:1023F000206261636B6C6967687420656E61626CF2
:10240000650A382920546F67676C65206465626FC0
:10241000756E6365207374796C650A392920426191
:10242000636B0A3E20000A4465627567204D656E45
:10243000753A0A3129205072696E74206576656E8E
:1024400074730A322920436C656172206576656E6B
:1024500074730A3329204578616D696E65206D6556
:102460006D6F72790A3429205072696E742F636C13
:1024700065617220636C6F636B2D696E730A392915
:10248000204261636B0A3E20000A4D61696E204D57
:10249000656E753A0A312920436F6E666967206D53
:1024A000656E750A32292054696D696E67206D6505
:1024B0006E750A3329204465627567206D656E75F7
:1024C0000A34292052657365740A392920517569C7
:1024D000740A3E20001E4D1F51204E215022002321
:1024E0004F244A2552264B2749374CB500B600B732
:1024F00000CD006F007000E200E500E900EA005244
:102500000153015401550183018A01920194012173
:1025100002230224022502260227022A02B101B266
:1025200002B304B408B510E001E102E204E308E4F8
:1025300010E520E640E7800105080A0C0F1014148E
:102540001818003847040001500401015404020126
:10255000450403014B04040153040501550406011D
:1025600048040701420408014D04090249040B0212
:1025700046040D014C040E0151040F0244041101E4
:102580004F041201410413016141624263436444F8
:10259000654566466747684869496A4A6B4B6C4CB3
:1025A0006D4D6E4E6F4F7050715172527353745423
:1025B000755576567757785879597A5A312132407D
:1025C000332334243525365E3726382A39283029F6
:1025D000000000000000000020202D5F3D2B5B7BF1
:1025E0005D7D5C7C237E3B3A2722607E2C3C2E3E28
:1025F0002F3F00000000000000000000000000006D
:1026000000000000000000000000000000000000CA
:1026100000000000000000000000000000000000BA
:1026200000000000000000002F2F2A2A2D2D2B2B48
:10263000000031003200330034003500360037002E
:102640003800390030002E005C7C000000000000E3
:10265000000000000000000000000000000000007A
:102660000000000000000000616263646566676846
:10267000696A6B6C6D6E6F70717273747576777852
:10268000797A4142434445464748494A4B4C4D4E6E
:102690004F505152535455565758595A303132337E
:1026A0003435363738392122232425262728292A6C
:1026B0002B2C2D2E2F3A3B3C3D3E3F405B5C5D5E1C
:1026C0005F607B7C7D7E004A03450061007300797A
:1026D0000041005600520020004D0075006C00744F
:1026E0000069006D00650064006900610020004B16
:1026F000006500790062006F0061007200640020D4
:1027000000760023002E00230023002E0023002348
:102710000000000403090409022200010100A032A4
:102720000904000001030101000921B00100012298
:102730003F0007058103080001090254000301005E
:10274000A0320904000001030101000921B00100C9
:1027500001223F0007058103120001090401000165
:10276000030000000921B0010001221B00070582BF
:10277000030200080904020001030000000921B05F
:10278000010001221D000705830301000809026DF5
:1027900000040100A0320904000001030101000946
:1027A00021B0010001223F00070581030800010953
:1027B00004010001030000000921B0010001221BF7
:1027C000000705820302000809040200010300005B
:1027D000000921B0010001221D000705830301004B
:1027E000080904030001030102000921B0010001EE
:1027F000223A000705840303000509026D00040165
:1028000000A0320904000001030101000921B00108
:102810000001223F000705810312000109040100A5
:1028200001030000000921B0010001221B0007057F
:1028300082030200080904020001030000000921CC
:10284000B0010001221D00070583030100080904EF
:10285000030001030102000921B0010001223A0036
:10286000070584030300051201000200000008EBC5
:1028700003FF2010000001000105010980A10105EE
:10288000011500250119812983750195038106959C
:102890000175058101C0050C0901A101050C160196
:1028A00000269C021A01002A9C02751095018100E5
:1028B000C005010902A1010901A1000509190129A9
:1028C00003150025019503750181029501750581A8
:1028D000010501093009311681FF267F003600000D
:1028E000460000950275088106C0C005010906A1D1
:1028F00001050719E029E7150025017501950881F3
:1029000002950175088101050819012905950575CC
:102910000191029501750391011500250105071923
:1029200000297F958075018102C005010906A1017A
:10293000050719E029E715002501750195088102B1
:10294000950175088101050819012905950575018D
:102950009102950175039101150025FF05071900E6
:1029600029FF950675088100C000E4E0F5E085ECDC
:102970009AE001C08193EF3FF907E0F3D9F3112406
:102980001FBECFEFDAE0DEBFCDBFC4B714BE0FB6B7
:10299000F894A895809160008861809360001092FF
:1029A00060000FBEC3FF11C0809102059091030526
:1029B0008D3A9E4D51F41092030510920205E2E407
:1029C000F5E285919491FC01099585B7806885BFF2
:1029D00085B7806885BFC093010511E0A0E0B1E034
:1029E000ECE4FAE602C005900D92AE35B107D9F7D6
:1029F00024E0AEE5B1E001C01D92AD37B207E1F7CA
:102A00000E9490340C9424350C94000010928301A1
:102A10001092820110927E0110927D0110928D0120
:102A200010928C01089590917F0180918A019923E1
:102A300099F181113FC080918101811129C080915C
:102A40009E01811121C0E09178019E1305C0109272
:102A50007F011092780127C081E08E0F809378016A
:102A6000F0E0EE0FFF1FE257FE4F80819181813031
:102A700019F49093810117C09093790180939E017E
:102A80008823A9F083D70FC0B6D710929E010BC040
:102A900081508093810107C081110CC08091800119
:102AA0008D7F8093800180918A01811103C081E034
:102AB00080938A0108958091850290917A01891707
:102AC00031F180937A01882311F1883211F0883531
:102AD00031F4809180018B7F809380010895E09193
:102AE0007C018A3251F4EE2391F0E150E0937C01B5
:102AF000F0E0EC57FE4F10820895E63040F4AE2F20
:102B0000B0E0AC57BE4F8C93EF5FE0937C0108952B
:102B10001092790180918502811102C0109280018A
:102B20000895AC0180917F01BA01982F292F281BAD
:102B3000983058F090937F01420F511D27FD5A9510
:102B400050938D0140938C0122C0FB01259134915B
:102B50006F5F7F4F211109C090937F0110928D010B
:102B600010928C019923C1F012C0F901FF27EE0FDA
:102B7000FF1FEC50FF4F25913491E92FF0E0EE0F4D
:102B8000FF1FE257FE4F318320839F5FCFCF80919D
:102B9000800183608093800181E0089540917F01EE
:102BA00028E030E0241B31092617370750F150E0A8
:102BB000252F052E000C330B26173707D0F4409134
:102BC0007F01FC01E20FF31FE081F0E0EE0FFF1F39
:102BD000EC50FF4F25913491E42FF0E0EE0FFF1FF2
:102BE000E257FE4F318320834F5F40937F015F5F49
:102BF000DFCF672B41F0809180018360809380015B
:102C000002C080E0089581E0089590917F0198309E
:102C100090F4E92FF0E0EE0FFF1FE257FE4F8083A4
:102C200061839F5F90937F01809180018360809397
:102C3000800181E0089580E008959C0190917F01DA
:102C400091112EC0A901983049F490937F01205F23
:102C50003F4F30938301209382011BC0FA0165919D
:102C600074914E5F5F4F6115710549F490937F0138
:102C70001092830110928201992381F00AC0E92FFA
:102C8000F0E0EE0FFF1FE257FE4F718360839F5FFE
:102C9000DACF8091800183608093800181E0089584
:102CA00080E00895AC0180917F0181113EC0609366
:102CB0008B01282F082E000C330B2617370758F5E9
:102CC00090917F01220F331F983038F0240F351F69
:102CD00030937E0120937D011EC0FA01E20FF31FA5
:102CE00020813181E92FF0E0EE0FFF1FE257FE4F08
:102CF000318320839F5F90937F0190918B0191504E
:102D000090938B01911105C010927E0110927D016C
:102D100002C08F5FCECF80917F01882341F08091E8
:102D2000800183608093800102C080E0089581E08B
:102D3000089590918001992329F191FD74CE2091FD
:102D40008201309183012115310511F0C90175CF40
:102D500020917D0130917E012115310539F060917E
:102D60008B01062E000C770BC9019CCF20918C01A2
:102D700030918D012115310511F0C901D2CE92FD9E
:102D80009ACEC6CE0895E4E8F1E010821182128254
:102D900013821482158210927C01809185028093A7
:102DA0007A01809180018560809380010895E82FE9
:102DB000F0E0EE0FFF1FEC50FF4F859194910895C6
:102DC00008959091D501903178F4E92FF0E09F01BA
:102DD000220F331FE20FF31FE056FE4F80837283F2
:102DE00061839F5F9093D501089541111BC040916D
:102DF000D50150E090E0292F092E000C330B241749
:102E0000350784F4F901EE0FFF1F2E0F3F1FF90164
:102E1000E056FE4F2081281303C07283618308951A
:102E20009F5FE9CFCECF8A3010F4805D0895895C32
:102E300008951F93CF93DF93182FEB0182958F7026
:102E4000F2DF8883812F8F70EEDF8983DF91CF914E
:102E50001F9108951F93CF93DF93182FEB01892FB4
:102E6000E8DFBE016E5F7F4F812FDF91CF911F9111
:102E7000E0CF9F92AF92BF92CF92DF92EF92FF92FC
:102E80000F931F93CF93DF939C018B0180E3FB0192
:102E9000808380E28183828383E0E82EF12CD4E674
:102EA000C0E09AE0B92E6D2F70E0C11103C0261763
:102EB000370788F06801CC0ED11CC7FDDA94C90130
:102EC0000E94A334982EA92E862FADDFF6018083B1
:102ED000292D3A2DCF5F8D2F6B2D0E949734D82F3F
:102EE000F1E0EF1AF108F9F6DF91CF911F910F9100
:102EF000FF90EF90DF90CF90BF90AF909F9008959C
:102F000097EA980F993010F48855089592EE980F2B
:102F1000993010F48D5108959CEF980F963010F46D
:102F20008A5F089580E00895BF92CF92DF92EF927A
:102F3000FF920F931F93CF93DF937C018B0180E06F
:102F400090E0B12CC42FD0E02B2D0B2C000C330BB8
:102F50002017310790F4C89F6001C99FD00CD89FFB
:102F6000D00C1124F701E20FF31F8081C9DF960115
:102F7000280F311DC901B394E7CFDF91CF911F9185
:102F80000F91FF90EF90DF90CF90BF9008950F9337
:102F90001F93CF93DF9300D000D0CDB7DEB78091E1
:102FA0008001811181C4E0919F018E2F90E08A31D0
:102FB000910508F077C4FC01EA5AFF4F0C94CA341B
:102FC00089E894E2AEDDDFDE82E011C011E010930B
:102FD0009F018091840194DF893009F463C48430B7
:102FE00019F41093D60160C4813021F483E08093FA
:102FF0009F015AC4823011F487E0F9CF833021F465
:1030000006C2883009F4CAC080E292E220C081E39F
:1030100093E287DDB8DE84E0EACF13E010939F01EE
:10302000809184016DDF893011F481E0E0CF81303F
:1030300099F49091540489278093540482E00E946B
:10304000B32880915404882321F08AED91E269DD50
:103050002BC484EB91E2FBCF823099F49091500421
:1030600081E089278093500481E00E94B3288091F9
:103070005004882319F089E791E2E9CF82E591E2D3
:10308000E6CF8330B1F48CE19FE14BDDBE016F5F91
:103090007F4F80914504CDDE8AE08B8363E070E052
:1030A000CE0101967BDD81E29FE13BDD6CDE8FE0AE
:1030B0009ECF843051F580915304811109C081E085
:1030C0008093530485E00E94B32889ED90E2BFCF3E
:1030D000813049F482E08093530485E00E94B32854
:1030E00086EA90E2B4CF823041F41093530485E035
:1030F0000E94B3288DE091E2AACF1092530485E09C
:103100000E94B32882E790E2A2CF853099F4909193
:10311000480481E089278093480487E00E94B3280F
:1031200080914804882319F084E390E290CF88E0EE
:1031300090E28DCF8630B9F48CE19FE1F2DC809192
:103140004B04BE016F5F7F4F90E093DE8AE08B837C
:1031500063E070E0CE01019621DD82E89DE1E1DCD3
:1031600012DE80E144CF873009F04BCF8CE19FE144
:10317000D8DC8091420490E0BE016F5F7F4F0196E2
:1031800078DE8AE08B8363E070E0CE01019606DD95
:103190008AEA9DE1C6DCF7DD81E129CF9091410407
:1031A00081E089278093410480E10E94B3288091C7
:1031B0004104882341F086E0809355040E94B3289F
:1031C0008DEB9FE144CF8CE08093550486E00E9414
:1031D000B3288FE69FE13BCF87E392E2A2DCD3DD09
:1031E00088E005CF87E080939F018091840188DE8D
:1031F000893009F41ACF8130B9F48CE19FE191DC78
:1032000080915504BE016F5F7F4F90E032DE8AE00F
:103210008B8363E070E0CE010196C0DC85EF9EE118
:1032200080DCB1DD82E1E3CE8230C1F48CE19FE14C
:1032300078DCBE016F5F7F4F80914D0490914E040A
:1032400018DE8AE08C8364E070E0CE010196A6DC93
:1032500082ED9EE166DC97DD83E1C9CE8330D9F44F
:103260008CE19FE15EDC8091490490914A04BE01AB
:103270006F5F7F4F919581959109FBDD8AE08C838B
:1032800064E070E0CE01019689DC83EA9EE149DCCE
:103290007ADD84E1ACCE8430B9F48CE19FE141DC8D
:1032A00080914604BE016F5F7F4F90E0E2DD8AE0CF
:1032B0008B8363E070E0CE01019670DC8CE79EE1C9
:1032C00030DC61DD85E193CE8530B9F48CE19FE19E
:1032D00028DC80914C04BE016F5F7F4F90E0C9DD18
:1032E0008AE08B8363E070E0CE01019657DC8FE4C7
:1032F0009EE117DC48DD86E17ACE8630C1F48CE1B0
:103300009FE10FDCBE016F5F7F4F80915104909170
:103310005204AFDD8AE08C8364E070E0CE01019658
:103320003DDC8BE29EE1FDDB2EDD87E160CE873068
:10333000B9F48CE19FE1F5DB80914404BE016F5F3D
:103340007F4F90E096DD8AE08B8363E070E0CE01F2
:10335000019624DC86E09EE1E4DB15DD88E147CEC2
:10336000883009F0A1C28CE19FE1DBDB80914F0442
:10337000BE016F5F7F4F90E07CDD8AE08C8364E06C
:1033800070E0CE0101960ADC86ED9DE1CADBFBDC34
:1033900089E12DCE86E294E2C4DBF5DC86E027CE1F
:1033A00085E080939F0180918401AADD893009F432
:1033B0003CCE813011F489E01ACE823071F4E0EA1B
:1033C000F1E080ED91E010821282118233968E1727
:1033D0009F07C9F71092D50167C2833031F48FE49B
:1033E0009FE19FDBD0DC8CE002CE843009F00CCE74
:1033F0008EE0FDCD8091D401803158F01092D4013F
:103400008AE0898361E070E0CE010196C7DB85E048
:10341000EECD8CE69FE185DBBE016F5F7F4F809133
:10342000D40107DD62E070E0CE010196B7DB85E6EE
:103430009FE177DB8AE0DBCD8091D40190E0FC0155
:10344000EE0FFF1F8E0F9F1FFC01E056FE4FBE01C7
:103450006F5F7F4F8081EDDC62E070E0CE0101960E
:103460009DDB8FE59FE15DDB8BE0C1CD8091D401D9
:1034700090E0FC01EE0FFF1F8E0F9F1FFC01E05636
:10348000FE4FBE016F5F7F4F81819281E3DC64E07C
:1034900070E0CE01019682DB89E080939F01A2C09B
:1034A00060917C0170E040E184E891E03DDD909323
:1034B000D1018093D0011092D3011092D20181E406
:1034C0009FE12FDB60DC8DE092CD8091D201909165
:1034D000D301892B89F40091D0011091D101609121
:1034E0007C0170E040E184E891E01EDD800F911FD7
:1034F0009093D3018093D20110E20AE0E091D001D1
:10350000F091D1018091D2019091D301E817F90790
:10351000D8F4BE016F5F7F4F80818BDC8091D20138
:103520009091D30101972091D0013091D1012817BA
:10353000390711F40B8301C01B8363E070E0CE01F7
:1035400001962CDB81110DC02091D0013091D10169
:103550008091D2019091D3012817390708F057CFF5
:10356000A3C18091D0019091D10101969093D10196
:103570008093D001C3CF8091D4018A3078F010922B
:10358000D4018AE0898361E070E0CE01019606DB18
:1035900085E080939F010E944A2B86C1082F0695E3
:1035A000182F117080FD02C08AE001C080E289837B
:1035B00061E070E0CE010196F1DA45E0149FF00180
:1035C0001124E00FF11DEE0FFF1FE45AFB4FBE0167
:1035D0006F5F7F4F808191813DDC64E070E0CE01C0
:1035E0000196DCDA8091D4018F5F8093D4015CC1B5
:1035F00060917C0170E04AE084E891E095DC8A30DB
:10360000910578F48093450483E00E94B3288CE10F
:103610009FE187DABE016F5F7F4F8091450409DC2F
:103620001AC183E79DE17DDAE1CC60917C0170E015
:103630004AE084E891E078DC9C012150310923368E
:10364000310558F48093550486E00E94B3288CE13C
:103650009FE167DA8091550479C083E79DE161DAE3
:10366000CBCC60917C0170E04AE084E891E05CDCC6
:103670009C0121503109273E334078F790934E0446
:1036800080934D0489E00E94B3288CE19FE149DAE0
:10369000BE016F5F7F4F80914D0490914E04B8C082
:1036A00060917C0170E04AE084E891E03DDC9C019F
:1036B00021503109273E334080F69195819591093B
:1036C00090934A04809349048AE00E94B3288CE1D5
:1036D0009FE127DA8091490490914A04BE016F5F0F
:1036E0007F4F91958195910993C060917C0170E025
:1036F0004AE084E891E018DC9C012150310923362E
:10370000310508F0AACF809346048BE00E94B328CD
:103710008CE19FE106DA8091460418C060917C013B
:1037200070E04AE084E891E0FFDB9C012150310920
:103730002336310508F091CF80934C048CE00E9431
:10374000B3288CE19FE1EDD980914C04BE016F5FFD
:103750007F4F90E08EDB8AE08B8363E070E0CE01E8
:1037600001961CDA49CC60917C0170E04AE084E863
:1037700091E0DADB9C0121503109273E334008F00B
:103780006CCF90935204809351048DE00E94B32833
:103790008CE19FE1C6D9BE016F5F7F4F80915104DC
:1037A0009091520435C060917C0170E04AE084E859
:1037B00091E0BADB9C01215031092336310508F034
:1037C0004CCF809344048EE00E94B3288CE19FE1AB
:1037D000A8D980914404BACF60917C0170E04AE09E
:1037E00084E891E0A1DB9C01215031092F3F310594
:1037F00008F033CF80934F048FE00E94B3288CE110
:103800009FE18FD980914F04BE016F5F7F4F90E0A1
:1038100030DB8AE08C8364E070E0A1CF60917C01B2
:1038200070E04AE084E891E07FDB9C01215031099F
:103830002031310508F0F5CE80934B0484E00E94DE
:10384000B3288CE19FE16DD980914B04BE016F5F7D
:103850007F4F90E00EDB8AE08B8363E070E0CE0167
:1038600001969CD9C3CB60917C0170E04AE084E86A
:1038700091E05ADB9C01215031092031310508F0DB
:10388000D0CE81508093420488E00E94B3288CE11E
:103890009FE147D98091420490E0BE016F5F7F4F66
:1038A0000196D8CF10929F010F900F900F900F901C
:1038B000DF91CF911F910F91089526E0829FC00163
:1038C0001124FC01E05CFE4F0190F081E02D20818D
:1038D00081E090E001C0880F6A95EAF7822B80832F
:1038E000089526E0829FC0011124FC01E05CFE4F98
:1038F0000190F081E02D808160956823462B408304
:10390000089526E0829FC0011124FC01E05CFE4F77
:103910000280F381E02D208181E090E001C0880FDA
:103920006A95EAF7822B8083089526E0829FC00182
:103930001124FC01E05CFE4F0280F381E02D208128
:1039400081E090E001C0880F6A95EAF780958223B4
:103950008083089526E0829FC0011124FC01E05C71
:10396000FE4F0280F381E02D80816823462B408347
:10397000089526E0829FC0011124FC01E05CFE4F07
:103980000480F581E02D808186230895E82FE69557
:10399000E695E695F0E0E858FD4F982F977021E006
:1039A00030E001C0220F9A95EAF79081292B2083FD
:1039B0009091720220E029175CF4E22F022E000C95
:1039C000FF0BEB57FD4F30818317A1F02F5FF3CF33
:1039D00096305CF4E92F092E000CFF0BEB57FD4FDE
:1039E00080839F5F90937202089510928B0281E012
:1039F00080937E030895E82FE695E695E695F0E03E
:103A0000E858FD4F982F977021E030E001C0220F59
:103A10009A95EAF7209590812923208320917202BC
:103A2000E5E8F2E090E092172CF43191831719F059
:103A30009F5FF9CF0895E92F092E000CFF0BEB577C
:103A4000FD4F818180839F5F9217ACF321502093BB
:103A5000720210927E030895E82FE695E695E695AA
:103A6000F0E0E858FD4F982F977021E030E001C05A
:103A7000220F9A95EAF7908129272083909172026C
:103A8000E5E8F2E020E029172CF431918317A9F042
:103A90002F5FF9CF96305CF4E92F092E000CFF0B55
:103AA000EB57FD4F80839F5F9093720208951092B1
:103AB0008B0281E080937E030895E22F022E000C9A
:103AC000FF0BEB57FD4F818180832F5F2917ACF3EC
:103AD00091509093720210927E03089590912D035D
:103AE00094305CF4E92F092E000CFF0BED58FD4FCC
:103AF00080839F5F90932D03089540E060E070E025
:103B000082E473D910927702089520912D03E3E7A0
:103B1000F2E090E09217A4F43191381711F09F5F12
:103B2000F9CFE92F092E000CFF0BED58FD4F8181D5
:103B300080839F5F9217ACF3215020932D0308954B
:103B4000682F70E040E083E450C980914504809381
:103B5000810308959FE0899F600D112480916D027B
:103B600068130DC08091490490914A048417950709
:103B700034F4809180038F5F8093800308951092C6
:103B80006D02109280030895E0914D04F0914E046F
:103B90004E175F0754F491E0F9019083FFE08F9F87
:103BA000600D112460936D020895F9011082109246
:103BB0006D0210928003089590918B01E92FEE0F12
:103BC000FF0BE357FD4F20916F0230E0322F222789
:103BD000282B3183208381E0890F80938B018035EE
:103BE00034F010927D0380937B0180E17BC50895C2
:103BF00090918303911110C0805D8E3068F4E82F9E
:103C0000F0E0EE0FFF1FED53F54F85919491880F73
:103C1000991F8D53954F11C80895CF93DF93C82FE7
:103C2000D62F5CDF8091810390914504891711F0B4
:103C30008B5F58D580E18C0F8093810385E18C0FD9
:103C400031D58FE02FD58091810390916E02D0FF06
:103C500002C0981308C0981308C080918003811196
:103C600004C08091450480936E02DF91CF91089546
:103C7000E82FF0E0EC50FE4F8491882311F060E0D3
:103C8000CCCF08950F931F93CF93DF93D82F162F88
:103C9000C42F022F3ADF002309F43AC02091810398
:103CA000422F50E08D2F90E0805F9109481759070F
:103CB00079F580918003882319F011FD20936E021D
:103CC00080917102D81324C012FF22C080E38C0FB0
:103CD0008E3018F48C2F8CDF1BC01C1624F46091DE
:103CE0006F028C2F13C08C2F807E803E89F4EC2FC6
:103CF000F0E0EE0FFF1FE859FC4D84918095909104
:103D00006F02892380936F02649180E00E94051600
:103D1000809181038B5FE6D4E0912D03E11103C014
:103D200080916E0207C00E2E000CFF0BEE58FD4F67
:103D30008081805F8093810380918103909145040D
:103D4000891731F08B5FDF91CF911F910F91AAC43A
:103D50008FE0DF91CF911F910F91C4C4E82FF0E065
:103D6000EC50FE4F8491882321F020E040E060E099
:103D700089CF08956F70623051F028F4662339F0CE
:103D8000613081F00895643011F06830F1F4E82F6B
:103D9000F0E0EE0FFF1FE859FC4DE49180916F02B7
:103DA000E82B0AC0E82FF0E0EE0FFF1FE859FC4DAA
:103DB000E49180916F02E827E0936F0280917F0386
:103DC000882319F0E777E0936F020895982F842FE6
:103DD0006F70623009F444C020F4662309F435C0E2
:103DE0000895643019F0683081F10895E92FF0E00A
:103DF000EE0FFF1FE859FC4DE491E09560916F02D2
:103E00006E2360936F02222309F447C02091710250
:103E1000921343C090E3980F9E3008F4E9CE181631
:103E200094F0982F907E903E09F037C0E82FF0E094
:103E3000EE0FFF1FE859FC4D849180956823609335
:103E40006F02649180E00C940516E92FF0E0EE0F0C
:103E5000FF1FE859FC4DE491E09580916F021AC074
:103E6000E92FF0E080916F02EE0FFF1FE859FC4D43
:103E7000222371F090918003992351F0E491E82B73
:103E8000E0936F0280917F03882339F0E77703C0C6
:103E9000E491E095E823E0936F0208956F7062303B
:103EA00051F028F4662339F0613031F00895643020
:103EB00011F0683011F46ACDCFCD08956F70623083
:103EC00049F018F461110DC00BC0643049F068303E
:103ED00041F406C0222321F090918003911101C08A
:103EE0008ACD0895CF93DF93C82FD62F862F807F5A
:103EF00011F080937901C23C09F488C0A0F5C63B5B
:103F0000D0F4C13B08F0CDC0C33809F46DC050F403
:103F1000C43008F416C1C43708F454C0C23809F4D8
:103F20005BC00FC1C43809F469C0E9E6EC0FE931A0
:103F300008F4A4C006C1C93B09F4CBC048F4C73B90
:103F400009F4BDC008F0C1C080917C038F5FBAC086
:103F5000CD3B08F4F6C0C03C08F47EC0C13C09F07B
:103F6000F0C0A3D4F4C0CF3C09F480C0A8F4C83C8E
:103F700009F45EC028F4C33C09F04AC062D4E7C02B
:103F8000CA3C09F4E4C008F45AC0CE3C09F0D9C0D8
:103F900082E08093D601DBC0CF3D09F4C0C030F48D
:103FA000CE3D08F0A8C08C2F23DED1C0C83E08F457
:103FB000C4C08FE08C0F893008F0C3C06D2F8C2FE8
:103FC0002CDEC5C080917D03882311F08C2FF4DD99
:103FD0006D2F8C2F63DFBBC08091700281FDB7C055
:103FE00060916F0289E307C08091700280FDAFC0CD
:103FF00060916F0283E50E940516A9C0809170024E
:1040000082FDA5C060916F0287E4F5CF28D49FC0E0
:1040100080917D0381119BC081E080937D0310928C
:104020008B01809383038CE38C0F809358046DC0C5
:104030009091830381E089278093830388C09091C6
:104040007F0381E0892780937F03811102C085E08F
:1040500064C085E027D37BC081E093E49C0F01C05E
:10406000880F9A95EAF78093820371C080919F012F
:1040700081116DC081E080939F0169C080912E0302
:1040800090912F03892B09F062C0F0E0EE0FFF1F23
:10409000E551FB4D8591949190932F0380932E03CE
:1040A00056C0EFE4EC0FF0E0EE0FFF1FE25EFA4DBA
:1040B000E49180917B03E82BE0937B0348C08091DF
:1040C0007C03815080937C0309C080918C028150D5
:1040D00003C080918C028F5F80938C02909140048A
:1040E00080918003992321F090913E04981778F5F0
:1040F00080933E042CC090917D0381E089278093BA
:104100007D03882321F010928B0180E1A3CF809161
:104110008B01811180937B0180E1E4D218C08091F2
:104120007D03811114C060917B01062E000C770B7A
:104130008DE892E00E9452160AC06D2F8C2F1ADE75
:1041400006C06C2F70E040E084E40E94F516C09336
:104150007102DF91CF9108950F931F93CF93DF9357
:10416000962F907F11F010927901883B09F4BBC023
:10417000022F142FD62FC82F893B70F5803BA0F457
:10418000873908F090C0823809F46DC030F48CEFA4
:104190008C0F803708F445C0BFC0833809F46BC06A
:1041A000843809F475C0B8C0863B09F492C008F0A1
:1041B00094C0813B08F4B0C06FE4680FE62FF0E0D4
:1041C000EE0FFF1FE25EFA4DE491E09580917B03D4
:1041D000E823E0937B03AAC0803EA8F48E3C08F05D
:1041E000A5C0803C50F48D3B08F05AC0893B09F0D3
:1041F00093C080918C02815079C08FE38C0F8A30FC
:1042000008F494C089C0883E08F473C08FE08C0F16
:10421000893008F081C08C2FDF91CF911F910F91D1
:1042200031CD80917D038823A9F080918303882379
:1042300089F0C83211F0CB3269F4109283031092E6
:104240007D0380918B01815080937B0110925904F2
:1042500080E148D2202F412F6D2F8C2FDF91CF91FD
:104260001F910F912BCE8091700281FF5FC06091F2
:104270006F0289E307C08091700280FF57C0609190
:104280006F0283E5DF91CF911F910F910C9405167A
:104290008091700282FF4AC060916F0287E4F2CF82
:1042A0001092820343C069E6680FE62FF0E0EE0F3C
:1042B000FF1FE551FB4D2591349180912E03909184
:1042C0002F032817390791F510922F0310922E0310
:1042D0002DC080917C03815003C080917C038F5F4F
:1042E00080937C0323C080918C028F5F80938C022B
:1042F0001DC080917D03882331F080917102C81325
:1043000002C080E059DC202F412F6D2F8C2FDF91D0
:10431000CF911F910F915ACD6C2F70E040E085E452
:10432000DF91CF911F910F910C94F516DF91CF91F2
:104330001F910F91089590916F02927220915404F1
:10434000222359F0911109C02091700220FF05C06D
:1043500022EE280F2A3008F4855C2091480422239D
:1043600021F1833571F49091700281E08927809367
:10437000700280FF03C080E095D11FC080E0B2D101
:104380001CC027EA280F2B3080F420917002E82F00
:10439000F0E0EE0FFF1F20FF05C0911103C0ED5D9F
:1043A000FB4D02C0EC5DFB4D84918A3C39F49923AE
:1043B00011F085E3089589E2089580E008959F92C1
:1043C000AF92BF92CF92DF92EF92FF920F931F9323
:1043D000CF93DF93D82EC62E7A01C62FD0E08FE080
:1043E000D89E80011124809181039BE4A92EF801BD
:1043F000A89EE00DF11D1124EC0FFD1FEB52F84FAC
:10440000849199DFB82E80918103A801A89E400D68
:10441000511D11244C0F5D1FFA01E951FB4FA4906F
:10442000FA01E750FE4F9490F801EE5DFD4FEC0F5E
:10443000FD1FB082F801E05DFC4FEC0FFD1FA08274
:1044400009521E4FC00FD11F9882A7016C2D8D2DD0
:1044500081DB492D6A2D8B2D45DD31D2DF91CF9146
:104460001F910F91FF90EF90DF90CF90BF90AF9092
:104470009F900C94962D9F92AF92BF92CF92DF9215
:10448000EF92FF920F931F93CF93DF931F92CDB7BD
:10449000DEB7E62FF0E09FE0899F90011124D9015B
:1044A000AE5DBD4F7D01EE0EFF1ED701BC908901B0
:1044B000005D1C4F0E0F1F1FD801AC9029523E4FBC
:1044C0006901CE0EDF1EF60190809E012F5F3F4FE7
:1044D0005BDB2981492D6A2D8B2D3EDED7011C9295
:1044E000F8011082D6011C920F90DF91CF911F919D
:1044F0000F91FF90EF90DF90CF90BF90AF909F9083
:10450000089570E02FE0829FC0011124FC01E05D5E
:10451000FC4FE60FF71F208123FF25C08E5D9D4FC6
:10452000FC01E60FF71F808190E3980F9E3008F49E
:104530005FCB18161CF460916F0213C0982F907E09
:10454000903E89F4E82FF0E0EE0FFF1FE859FC4D94
:104550008491809590916F02892380936F0264917A
:1045600080E00C940516089520918303211112C058
:10457000FC01A5E8B2E0069621E030917E033323EA
:1045800011F0208302C03C91308331961196E817D8
:10459000F90799F7089520918303211109C0A8E72D
:1045A000B2E0FC018D91819382E0A538B807D1F784
:1045B0000895FC0180918303811106C080916F02F0
:1045C00090917901982B90830895E62FF0E09FE079
:1045D000899FE00DF11D1124EB52F84FE491E83270
:1045E00011F0E83539F441E060E070E081E50E94C7
:1045F000F51614C5089590E09C01220F331F820F19
:10460000931FFC01E050F44E2491FC01319682503E
:10461000944EE250F44E261721F06491FC018491EF
:1046200070C96491FC01849180C90F931F93CF934B
:10463000DF93EFE2FCE1D4910EEF1BE1C0E0CD1778
:1046400069F0F80131966491F801849136D960E0FF
:104650008C2FD1DFCF5F0D5F1F4FF1CF80914B04C7
:1046600080939303809390038091420480938E0300
:10467000DF91CF911F910F91089580918C03893F15
:1046800069F4809198038F3E19F41092980303C047
:104690008F5F8093980310928C0308958F5F8093AF
:1046A0008C03089590E0880F991FFC01EC52F44EA2
:1046B000A491FC01EB52F44E8491EEE2FCE1E49112
:1046C000AE1778F4B0E0AC57BC4F811103C08C91A9
:1046D000816006C09C919170E82FEE0F892F8E0F9C
:1046E0008C93089590E0880F991FFC01EC52F44ED2
:1046F000A491FC01EB52F44E8491EEE2FCE1E491D2
:10470000AE1780F4B0E0AC57BC4F811104C08C915F
:104710008E7F8C9308959C91292F2695821302C039
:1047200091709C930895823049F0833079F0813004
:10473000A1F481E1B7DF82E1D5DF0CC081E1D2DFF6
:1047400082E1D0DF83E1AEDF84E1CCCF81E1CADF5B
:1047500082E1A8DF83E1C6DFF7CF81E1C3DF82E139
:10476000C1DF83E1BFDF84E19DCF0F931F93CF9320
:10477000EEE2FCE1E491C0E00E2F10E08C2F0C2E55
:10478000000C990B8017910714F520918F032223B9
:10479000C9F0FC01EC57FC4F2081223018F42111A4
:1047A0000FC010C0E22FE695F0E0E95CFA4D64918D
:1047B000809198030E949734921720F490FF02C0D2
:1047C00061E001C060E08C2F16DFCF5FD7CFCF91C3
:1047D0001F910F91089580919303803110F081E033
:1047E00002C08C5F8C7F8093930308958091940323
:1047F0008F5F813118F480939403089581E0809352
:10480000940310929203109297030895909193034A
:10481000903120F081E080938F030895809192037E
:1048200020919403929F902D1124891738F491E0E0
:1048300090938F03805F80939203089510928F036B
:104840000895E3EDFBE1E49180918E038F5F8E1775
:1048500018F480938E03089510928E03089580912A
:1048600095038F5F843018F48093950302C01092F3
:10487000950380919503811103C08091930303C038
:10488000813021F484E0809390030895823031F4E4
:1048900084E08093900310929103089580E18093C7
:1048A000900381E080939103089595DF80919503B3
:1048B000811104C0809193038093900308958091A7
:1048C0009503823011F488E10BC0833071F480913C
:1048D0009003853010F0845003C0882321F081506C
:1048E0008093900308951092900308958091960309
:1048F0008F5F803318F48093960308951092960387
:10490000909195039130B1F420919103809190039F
:10491000222341F08F5F809390038831E0F0109262
:10492000910308958150809390038530A0F4909373
:1049300091030895923031F480919003853058F0BE
:10494000815007C0933039F480919003803118F47E
:104950008F5F80939003089580919003803120F0C1
:1049600081E080938D03089590919403899F802D19
:104970001124909191039111807F90919703981742
:1049800038F481E080938D03905F909397030895AE
:1049900010928D0308951F93CF93DF93EFE2FCE114
:1049A000E49110E0CE2FD0E0812F012E000C990B66
:1049B0008C179D07ECF4FC01ED53F44EE491EE23CB
:1049C000A9F020918D03222371F020918E03FC0128
:1049D00030E1239FE00DF11D1124ED53F54EE491DC
:1049E00061E0E11101C060E0812F05DE1F5FDCCFD7
:1049F000DF91CF911F910895F9DE08DF3EDEB5DE2D
:104A000075DFAADFC8CF1F920F920FB60F92112445
:104A10002F938F939F93AF93BF93EF93FF93EDB734
:104A2000FEB781E090E0909300058093FF04F0933F
:104A3000FE04E093FD043196ADE7B4E080E090E041
:104A4000E1152BE0F20720F0FC01E358FB4F07C013
:104A500021912D9301968038910591F706C084E04D
:104A6000ED3FF80711F01192FACFFF91EF91BF914E
:104A7000AF919F918F912F910F900FBE0F901F902C
:104A80001895E4E6F0E0808180718083A5E6B0E0CF
:104A90008C9186778C938081816080838081846013
:104AA00080838081806280838081806480838C9118
:104AB00088608C938081806880838081826080831D
:104AC0008C9181608C938C918F778C9390E080E8AF
:104AD0000FB6F89480936100909361000FBE089523
:104AE0006091010570E040E081E00E94F516609160
:104AF000FF04709100056115710541F041E082E00D
:104B00000E94F516109200051092FF04BACF8DEAAC
:104B10009EED9093030580930205089580E189BD81
:104B200082E189BD09B400FEFDCF8091D8008F7D60
:104B30008093D8008091E00082608093E0008091B3
:104B4000E00081FDFCCF0895CF93DF93262F642FE3
:104B50009FE0299FE0011124C40FD11DCC0FDD1F60
:104B6000CC55DC4F48815981882301F157FF0EC095
:104B70008091550490E0919581959109841795074E
:104B80007CF1822F1CDC82E090E020C080915104F7
:104B9000909152044817590794F0822FB2DC20916B
:104BA000440488819981821B910910C0141615064E
:104BB00084F48091550490E0481759071CF44E5F27
:104BC0005F4F10C0822F57DC8EEF9FEF9983888351
:104BD0000BC08091490490914A048417950724F4EE
:104BE0004250510959834883DF91CF9108950F9323
:104BF0001F93CF93DF93082F862F642FC42FD0E00D
:104C00009FE0899FC00DD11D1124CC0FDD1FCC5515
:104C1000DC4F5981011110C057FD27C08881952FA5
:104C200093702091490430914A048217930708F445
:104C300002969983888338C057FF17C00881152FC3
:104C4000137020915104309152040217130730F071
:104C500058DC80914404081B110902C00E5F1F4FED
:104C600019830883898180681EC0152F16951695B3
:104C70001F711E5F90915504191778F04881537089
:104C8000002311F09CDB01C0F6DB812F90E09983BB
:104C90008883898100FB87F906C01F71110F110FEE
:104CA0005378852F812B8983DF91CF911F910F91AD
:104CB0000895CF92DF92EF92FF921F93CF93DF93ED
:104CC000E6EAFCE1E491E0939903E5EAFCE1E49192
:104CD000E0939F03E4EAFCE1E491E093A203E3EABA
:104CE000FCE1E491E093A30389E9E82E8CE1F82E3E
:104CF0009AE9C92E93E0D92ED0E0F7011491809162
:104D00009F0381111FEFF7013196C4914C2F612F42
:104D10008D2F0E94711CEC2FE095D601ED936D0153
:104D20004E2F412380919F03642F6095811101C014
:104D300040E08D2F0E94AA1CDF5FB2E0EB0EF11C59
:104D4000D530D9F680914104882371F087EF95E240
:104D50009093A1038093A00380915504813250F079
:104D600080E28093550406C084EA95E29093A10303
:104D70008093A003DF91CF911F91FF90EF90DF9080
:104D8000CF900895CF92DF92EF92FF920F931F93EF
:104D9000CF93C0E08091A20390E02C2F0C2E000C4A
:104DA000330B281739070CF054C08AE9E82E83E04A
:104DB000F82EF5E0CF026001112400E010E0F801C8
:104DC000EC0DFD1DE25BF34E4491F70161917F0113
:104DD000802F0E94AA1C0F5F1F4F0530110579F725
:104DE00080914F048A95F1F710E0812F012E000C7D
:104DF000990B2091A30330E08217930744F520918B
:104E00009F03880F991FFC01EF5CF34E222351F0A2
:104E10006491FC01E05DF34E84910E94B91C8823EB
:104E200051F013C06491FC01E05DF34E84910E9447
:104E3000B91C882351F080919903882319F06C2FB5
:104E4000812F02C0612F8C2FC0DB1F5FCECFCF5FC1
:104E5000A1CFCF911F910F91FF90EF90DF90CF9056
:104E60000895CF92DF92EF92FF920F931F93CF930B
:104E7000DF93D62FC82FCD170CF05EC08AE9E82E3D
:104E800083E0F82EF5E0CF026001112400E010E08D
:104E9000F70161917F016F3F49F0F801EC0DFD1DB5
:104EA000E25BF34E4491802F0E94AA1C0F5F1F4FBC
:104EB0000530110569F780914F048A95F1F710E0EC
:104EC000812F012E000C990B2091A30330E0821753
:104ED000930784F520919F03880F991FFC01EF5CD5
:104EE000F34E222359F06491FC01E05DF34E84916E
:104EF0000E94B91C91E0882361F00AC06491FC0112
:104F0000E05DF34E84910E94B91C91E0811101C0D3
:104F100090E080919903E091A003F091A103882390
:104F200019F04C2F612F02C0412F6C2F892F09954A
:104F30001F5FC6CFCF5F9FCFDF91CF911F910F91A2
:104F4000FF90EF90DF90CF9008956091A203669557
:104F500080E087CF8091A203682F869582CF81E081
:104F600080933D04089520913D04AC01249FC0012D
:104F7000259F900D11246AE070E00E94A334809177
:104F80003C04562F581B852F60933C042F5F2093C1
:104F90003D042B3028F010923C0491E090933D04A6
:104FA000089580917C03811104C080918C02882334
:104FB00011F181E08093400480913F04811126C06B
:104FC00080913E0490914C0420914604899FC00139
:104FD0001124820F911DC7DF90917C03989F902D23
:104FE000112490933B0490918C02989F802D112462
:104FF00080933A040BC01092400410923C0410922B
:105000003B0410923A048AE080933D0480913F046F
:10501000811103C081E080933F040895CF93DF9313
:10502000CDB7DEB764970FB6F894DEBF0FBECDBF25
:1050300080E280934704109250041092540410921E
:10504000450440E140934B04109253043CE03093FC
:105050005504109248041092420460EF70E070937F
:105060004E0460934D0468E87FEF70934A046093A8
:10507000490495E0909346042FE020934C0460E2AD
:1050800073E07093520460935104809344049093AE
:105090004F041092410489831A821B821C824D8323
:1050A0001E823F831886198630EF3A871B8638E8C0
:1050B0003C873FEF3D879E872F87888B23E0298B96
:1050C0008A8B9B8B1C8A44E150E060E070E0CE014B
:1050D00001960E94FA3464960FB6F894DEBF0FBEB4
:1050E000CDBFDF91CF910895EF92FF920F931F9361
:1050F000CF93DF93C4E4D5E208E815E2FE013296CF
:1051000084913196E49190E0E23059F4FE01E5900B
:10511000F490805090400E94F534F7019183808391
:1051200009C0FE01E590F490805090400E94ED345B
:10513000F701808324960C171D0701F7609147043F
:10514000603231F070E041E080E50E94F51666DFE4
:105150008091530480934304DF91CF911F910F916D
:10516000FF90EF90089524E0829FC0011124FC017C
:10517000EA5BFA4D2491FC01E95BFA4D3491FC01A4
:10518000EC5BFA4D822F90E0323041F4A591B4915E
:105190006D917C91805090400C941135A591B49103
:1051A0006C91805090400C94033585E080935904B5
:1051B0000895809158042EE28202C0011124FC015E
:1051C000E053F34E4491FC01EF52F34E3491FC0155
:1051D000EE52F34E2491FC01ED52F34EE491909186
:1051E0008B0180915604913079F01CF4992331F0B1
:1051F0001FC0923081F09330A9F01AC0442321F0EF
:105200006AE10E9497342EC0332329F06AE10E949C
:105210009734965E27C0222329F06AE00E949734D3
:105220009C5C20C0EE2321F0982F9F71925C1AC0E5
:10523000442311F06AE101C060E03111665E211182
:10524000665FE111605E0E949734411101C0965E75
:10525000311103C09A3134F0965E211103C09433AA
:105260000CF0965FE92F990FFF0BE859F94D8491E7
:10527000089584509272E82FF0E0EE0FFF1F911115
:1052800003C0E857FA4D02C0E757FA4D84910895DC
:105290001F93CF93DF93E091580420918B01022E4E
:1052A000000C330BCE2F0E2E000CDD0B8EE2E8022D
:1052B000F0011124E153F34E649170E0C9010E94A2
:1052C000B734182F60917B01062E000C770BC901B3
:1052D0000E94B734FC01FF27EE0FFF1FE357FD4F7D
:1052E00080819181C6DF90915604890F982F990F84
:1052F00087FD9F5F909356048EE28C9FF0018D9FF7
:10530000F00D1124E10FF11DE955F34EE491809168
:105310005604E827E0935604DF91CF911F9108953A
:10532000FF920F931F93CF93DF93E09158048EE287
:10533000E80290011124F901EC52F34EF490CF2DC4
:10534000D0E000E510E00C1B1D0B000F111F0357F0
:105350001D4F80915904823009F444C028F48823F9
:1053600051F08130C9F0ABC0833009F45AC08430A9
:1053700009F47EC0A4C01092560481E080935904C1
:1053800010928B01F901E153F34EE491E11197C0C2
:1053900085E08093590493C080918B01F901E80F57
:1053A000F11D87FDFA95E955F34E9491409156040D
:1053B000490F409356048F5F80938B01F901E153AD
:1053C000F34EE491082E000C990BF0E08E179F0726
:1053D0000CF475C082E08093590410928B014093C5
:1053E00057046DC0A0918B01AA0FBB0BA357BD4FF3
:1053F0008D919C913EDF90915704890F80935704C3
:1054000090918B019F5F90938B0120917B0192176C
:105410000CF455C06F2D0E9497349093570483E08D
:1054200022C036DF80915704080F111D080F111D8F
:10543000C0DE0E94D716F8019183808380915704C3
:1054400090E00196BE010E94B7348093570480918A
:105450008B018F5F80938B01082E000C990B8C17AA
:105460009D076CF184E08093590410928B0127C052
:1054700080918B01282F220F330BF801E20FF31FCD
:1054800040815181F901E357FD4F518340838F5F84
:1054900080938B01082E000C990B8C179D077CF0D4
:1054A00085E080935904F0927B01BE018DE892E083
:1054B000DF91CF911F910F91FF900C945216DF91C5
:1054C000CF911F910F91FF900895809159048530DD
:1054D00009F026CF089513BC10928000109282002C
:1054E00080E89EE39093890080938800089510924D
:1054F0005A047894109285001092840081E0809381
:10550000810082E080936F009AE088E10FB6F89402
:10551000A895809360000FBE90936000E0E6F0E0F5
:105520008081806C808308950FB6F894A89580914F
:105530006000886180936000109260000FBEE0E61A
:10554000F0E080818F7B808310926F001092810049
:1055500008952091840030918500E0915A04909143
:10556000700485E08E9FF0011124E90FF11DEE0F0C
:10557000FF1FE45AFB4F408151814217530778F4D3
:10558000E0915A04909170048E9FF0011124E90F6C
:10559000F11DEE0FFF1FE45AFB4F31832083089566
:1055A0001F93CF93DF93C0E0D0E015E080915A04C1
:1055B000FE01189FE00DF11D1124EE0FFF1FE15AAF
:1055C000F24E85919491009729F0C0937004FC01EC
:1055D0000995BFDF2196C530D10541F7DF91CF9105
:1055E0001F910895109285001092840080915B04B1
:1055F000882381F080915A046091700470E0782BC8
:1056000040E081E10E94F51680915B048F5F8093FA
:105610005B04089581E080935B047894C1DF8091FE
:105620005A048F5F80935A04823010F010925A040B
:1056300080915B04823038F060915B0470E040E060
:1056400084E10E94F516A89510925B0408951F92BC
:105650000F920FB60F9211242F933F934F935F93A6
:105660006F937F938F939F93AF93BF93EF93FF932A
:10567000B9DFFF91EF91BF91AF919F918F917F9192
:105680006F915F914F913F912F910F900FBE0F90AF
:105690001F901895ECE5F4E01182108213821282BB
:1056A000158214821782168211861086138612863E
:1056B0001586148617861686118A108A138A128A0E
:1056C0000895292F33272330310529F138F421306B
:1056D000310561F02230310571F07FC02132310592
:1056E00049F12232310509F445C077C082E190E0EA
:1056F00027E638E27BC080914304833009F459C027
:10570000813009F45BC0823009F45DC08DE690E021
:105710002AEF37E26BC09927009731F0019709F023
:105720005CC0E7ECF6E202C0E3E1F7E2849190E0CE
:105730009F015CC06130A1F050F06230B1F0633085
:1057400009F04BC089E090E027E538E24FC0809136
:10575000430480FD3DC089E090E02CE038E246C083
:1057600089E090E025E238E241C089E090E02EE354
:1057700038E23CC0613099F048F06230A9F0633003
:1057800061F58AE390E021EB38E230C08091430478
:1057900080FD28C08FE390E02BEE38E227C08BE13C
:1057A00090E026E938E222C08DE190E029E738E276
:1057B0001DC082E290E027E137E218C08DE690E05C
:1057C0002DE837E213C084E590E029E337E20EC00C
:1057D00089E090E029E237E209C080E090E020E033
:1057E00030E004C08FE390E02AE239E2FA0131832D
:1057F0002083089581E00C9493230895CF93DF9341
:1058000080E391E07FD7C82F80914304833049F033
:1058100080E191E077D7D82F80E091E073D78D2396
:10582000C8238091430481FD04C080E291E06AD7DF
:10583000C823CC2311F080E001C083E00E949323B1
:105840008091E20084608093E200DF91CF9108951F
:1058500080E391E024D680914304833031F080E1ED
:1058600091E01DD680E091E01AD68091430481FD3D
:1058700003C080E291E013C6089580913E019091AB
:105880003F01009729F0019790933F0180933E01DB
:1058900020914304233019F180911E0190911F0142
:1058A000009729F0019790931F0180931E0180912A
:1058B0000E0190910F01009729F0019790930F012D
:1058C00080930E0121FD0BC080912E0190912F013C
:1058D000009729F0019790932F0180932E0108954E
:1058E00082E00C94932380E00C949323FCCF0F93DD
:1058F0001F93CF93DF93F901D801EC012881213068
:1059000009F441C030F0223009F446C0233031F1AF
:105910004AC0EF01FC0110928A0120914304CE019C
:10592000029620FD06C02185222319F00E94CB2279
:1059300002C00E94B422CE010E94D9228091430469
:1059400080FF06C088E090E0F801918380832BC03F
:1059500082E190E0E8019983888325C010923F049A
:1059600080917B03808380913B04818380913A0402
:10597000828383E090E08D939C9381E0909140043A
:10598000911112C010C080912E0390912F0391832A
:10599000808382E090E005C080918203808381E073
:1059A00090E08D939C9380E0DF91CF911F910F91B8
:1059B0000895CF938053914009F081C0F90180810F
:1059C00080937002C0915F01C82780935F01CC2350
:1059D00009F475C090914804911111C0C0FF0FC027
:1059E00080FF07C080E00E94522380E00E94381EA2
:1059F00006C080E00E94722380E00E94AE1EC1FFBC
:105A000011C08091700281FF07C081E00E94522383
:105A100081E00E94381E06C081E00E94722381E06E
:105A20000E94AE1EC2FF24C08091700282FF11C08E
:105A300082E00E94522382E00E94381E809150042E
:105A40008823B1F081E080937F0385E00E94522398
:105A50000FC082E00E94722382E00E94AE1E8091FD
:105A60005004882329F010927F0385E00E9472235E
:105A7000C3FF11C08091700283FF07C083E00E94C2
:105A8000522383E00E94381E06C083E00E947223E6
:105A900083E00E94AE1EC4FF12C08091700284FF9A
:105AA00007C084E00E94522384E0CF910C94381EFA
:105AB00084E00E94722384E0CF910C94AE1ECF91BB
:105AC00008958091430480FF09C088E080933801E5
:105AD00088E090E09093330180933201089580E351
:105AE00091E023D680914304833031F080E191E04E
:105AF0001CD680E091E019D68091430481FD03C05B
:105B000080E291E012D6B1D48091740490915E014C
:105B1000981759F06091740470E041E086EA0E94A1
:105B2000F5168091740480935E010895809172044B
:105B3000882331F080917404853011F40C948E2503
:105B40000895CF92DF92EF92FF920F931F93CF931E
:105B5000DF93EC018B017A01CED1811133C0E114C6
:105B6000F10439F0F70180819181081B190BC80FEE
:105B7000D91FC12CD12C0115110519F18091E80014
:105B800085FD16C08091E8008E778093E8006DD483
:105B9000E114F10449F0F70180819181C80ED91E0A
:105BA000D182C08285E00EC0A6D1882321F30AC02D
:105BB00089918093F10001501109FFEFCF1ADF0A9C
:105BC000DACF80E0DF91CF911F910F91FF90EF909E
:105BD000DF90CF90089520917B0430917C042617AC
:105BE000370748F06115710539F42091E8002E77E8
:105BF0002093E80001C0B901FC0120E061157105A6
:105C000079F1809174048823F1F18530F1F180916C
:105C1000E80083FD3CC08091E80082FD2EC08091A9
:105C2000E80080FFEBCF2091F3008091F20090E03C
:105C3000922B6115710551F08830910538F421914E
:105C40002093F100615071090196F3CF21E008978C
:105C500009F020E08091E8008E778093E800CECFB5
:105C60002111CFCF0AC080917404882361F0853060
:105C700061F08091E80083FD0AC08091E80082FF16
:105C8000F2CF80E0089582E0089583E0089581E0F6
:105C900008956115710529F42091E8002B77209370
:105CA000E800FC016115710541F1809174048823BD
:105CB00061F1853061F18091E80083FD24C080911D
:105CC000E80082FFEFCF2091F3008091F20090E096
:105CD000922B892B31F08091F100819361507109F1
:105CE00091F78091E8008B778093E800DBCF80917B
:105CF0007404882351F0853051F08091E80080FFD2
:105D0000F6CF80E0089581E0089582E0089583E071
:105D1000089520917B0430917C042617370748F0C2
:105D20006115710539F42091E8002E772093E80081
:105D300001C0B901FC0120E06115710591F180916C
:105D40007404882309F440C0853009F43FC0809171
:105D5000E80083FD3DC08091E80082FD2FC0809166
:105D6000E80080FFE9CF2091F3008091F20090E0FD
:105D7000922B6115710559F08830910540F42491FA
:105D80002093F1003196615071090196F2CF21E024
:105D9000089709F020E08091E8008E778093E80072
:105DA000CBCF2111CCCF0AC080917404882361F03D
:105DB000853061F08091E80083FD0AC08091E800A1
:105DC00082FFF2CF80E0089582E0089583E0089595
:105DD00081E00895982F973068F59093E90098171F
:105DE00039F07091EC002091ED005091F00003C06B
:105DF000242F762F50E021FD02C09F5FECCF309121
:105E0000EB003E7F3093EB003091ED003D7F30930F
:105E1000ED003091EB0031603093EB007093EC00BB
:105E20002093ED005093F0002091EE0027FDE5CF88
:105E300080E008958F708093E90081E008950F93CA
:105E40001F93CF93DF93062FEC0110E0101771F131
:105E50006881611103C01F5F2596F8CF2C81A9814D
:105E6000BA819B81862F8F70873010F080E01FC031
:105E7000223010F442E001C046E0E8E0F0E020E02B
:105E8000EA17FB0720F42F5FEE0FFF1FF9CF2295D3
:105E9000207F422B50E4959F90011124661F6627B6
:105EA000661F622B97DF8111D6CFE0CF81E0DF91B3
:105EB000CF911F910F9108958091750487FF11C0B4
:105EC0008091E80082FD05C0809174048111F8CFB3
:105ED00011C08091E8008B770BC0809174048823F7
:105EE00049F08091E80080FFF8CF8091E8008E773C
:105EF0008093E80008952091E4003091E50095E654
:105F00004091EC00842F817040FF23C08091E80015
:105F100080FD1DC080917404882399F0853099F02C
:105F20008091EB0085FD11C04091E4005091E500A7
:105F30002417350729F3915011F09A01E1CF84E03D
:105F4000089582E0089583E0089581E0089580E057
:105F500008954091E80042FFDDCF089565D06CD0F0
:105F6000E0EEF0E0808181608083E8EDF0E0808108
:105F70008F77808319BCA7EDB0E08C918E7F8C93D6
:105F800080818F7E80831092730408950F931F93F6
:105F9000CF93DF9349D050D0C8EDD0E088818F7780
:105FA000888388818068888388818F7D888319BCF5
:105FB00010927404109271041092720400EE10E0BA
:105FC000F80180818B7F808388818160888342E0B3
:105FD00060E080E0FFDEE1EEF0E080818E7F808394
:105FE000E2EEF0E080818160808380818860808340
:105FF000F80180818E7F8083888180618883DF9132
:10600000CF911F910F910895E8EDF0E080818F7E90
:106010008083E7EDF0E080818160808384E082BF4F
:1060200081E080937304B2CFE8EDF0E080818E7F51
:1060300080831092E20008951092DA001092E1003D
:1060400008951F920F920FB60F9211242F933F9332
:106050004F935F936F937F938F939F93AF93BF9370
:10606000EF93FF938091E10082FF0AC08091E200EC
:1060700082FF06C08091E1008B7F8093E100FDDB11
:106080008091DA0080FF1DC08091D80080FF19C088
:106090008091DA008E7F8093DA008091D90080FFB2
:1060A0000CC080E189BD82E189BD09B400FEFDCF4D
:1060B00081E0809374049EDB04C019BC10927404C8
:1060C0009CDB8091E10080FF18C08091E20080FF9E
:1060D00014C08091E2008E7F8093E2008091E20004
:1060E00080618093E2008091D80080628093D80024
:1060F00019BC85E080937404F3DB8091E10084FF98
:106100002FC08091E20084FF2BC080E189BD82E135
:1061100089BD09B400FEFDCF8091D8008F7D8093AA
:10612000D8008091E1008F7E8093E1008091E200B1
:106130008F7E8093E2008091E20081608093E20094
:1061400080917104882311F084E007C08091E300FE
:1061500087FD02C081E001C083E080937404C3DB4B
:106160008091E10083FF22C08091E20083FF1EC086
:106170008091E100877F8093E10082E08093740446
:10618000109271048091E1008E7F8093E1008091F4
:10619000E2008E7F8093E2008091E2008061809334
:1061A000E20042E060E080E015DEA0DBFF91EF91CD
:1061B000BF91AF919F918F917F916F915F914F911F
:1061C0003F912F910F900FBE0F901F9018951F9326
:1061D000CF93DF93CDB7DEB7AA970FB6F894DEBFA3
:1061E0000FBECDBFE5E7F4E08091F100819324E09C
:1061F000ED37F207C9F72CDB8091E80083FF1DC162
:106200008091750490917604492F50E04A305105F1
:1062100008F013C1FA01E059FF4FBCC3803881F088
:10622000823809F00AC1809179048F708093E90067
:106230008091EB0085FB882780F91092E90007C068
:1062400080917204882311F082E001C080E0909177
:10625000E800977F9093E8008093F1001092F1009E
:10626000C4C0282F2D7F09F0E8C0882319F08230A0
:1062700061F0E3C080917704813009F0DEC0933093
:1062800009F080E0809372042BC080917704811123
:1062900027C0809179048F7009F4CFC08093E90002
:1062A0002091EB0020FF1CC0933021F48091EB0083
:1062B000806214C09091EB0090619093EB0021E01C
:1062C00030E0A90102C0440F551F8A95E2F74093C0
:1062D000EA001092EA008091EB0088608093EB0066
:1062E0001092E9008091E800877F82C08111A5C0EB
:1062F000109177041F778091E3008078812B809341
:10630000E3008091E800877F8093E800D5DD8091ED
:10631000E80080FFFCCF8091E30080688093E30079
:10632000111102C082E001C083E08093740485C033
:106330008058823008F081C0809177049091780471
:106340008C3D53E0950771F583E08A838AE2898367
:106350004FB7F894DE01139620E03EE051E2E32FC0
:10636000F0E050935700E49120FF03C0E295EF70F6
:106370003F5FEF708E2F90E0EA3010F0C79601C0BB
:10638000C0968D939D932F5F243149F74FBF809125
:10639000E800877F8093E8006AE270E0CE01019612
:1063A0001ADC12C0AE014F5F5F4F6091790489D94A
:1063B000BC01892B09F441C09091E800977F90932C
:1063C000E80089819A81A5DC8091E8008B77809331
:1063D000E80033C0803889F58091E800877F80939A
:1063E000E800809171048093F1008091E8008E773D
:1063F0008093E80061DD21C081111FC08091770486
:106400009091780499270297C4F48091E800877FDF
:106410008093E80080917704809371044DDD809132
:106420007104811106C08091E30087FD02C081E004
:1064300001C084E080937404E1D98091E80083FF77
:106440000AC08091E800877F8093E8008091EB008C
:1064500080628093EB00AA960FB6F894DEBF0FBE61
:10646000CDBFDF91CF911F910895CF938091740498
:10647000882399F0C091E900CF709091EC00892FAA
:10648000817090FD80E8C82B1092E9008091E800AF
:1064900083FD9DDECF70C093E900CF9108956F9288
:1064A0007F928F929F92AF92BF92CF92DF92EF92A4
:1064B000FF920F931F93CF93DF9300D01F92CDB71E
:1064C000DEB77C01ADB6BEB68091E80083FF03C1A4
:1064D000F701808190E02091790430917A042817A7
:1064E000390709F0F8C080917604833009F49AC026
:1064F00030F4813071F0823009F4D1C0ECC08A30C0
:1065000009F4B5C08B3009F49EC0893009F0E3C0AE
:106510004CC080917504813A09F0DDC08DB69EB6FD
:106520001A82198280917704109178048B83F70185
:106530008085482F50E08DB79EB7841B950B0FB612
:10654000F8949EBF0FBE8DBFEDB7FEB731966F01B9
:1065500060E070E0CF013AD24FEF410F8E010F5F44
:106560001F4F9601BE016D5F7F4FC701C0D9F70174
:1065700086819781009721F0408550E0B6011DD2B9
:106580001092E9008091E800877F8093E8008B817A
:1065900081118093F10069817A81C6011CDB8091B1
:1065A000E8008B778093E80037C0809175048132D2
:1065B00009F091C08DB69EB600917B0410917C04C9
:1065C00070907704609078048DB79EB7801B910B14
:1065D0000FB6F8949EBF0FBE8DBFEDB7FEB73196D4
:1065E0006F018091E800877F8093E800B801CF01B8
:1065F00050DB8091E8008E778093E80021E07110F5
:1066000001C020E030E0021B130B2C0D3D1D4FEFAD
:10661000460D672DC701CDD90FB6F8949EBE0FBEAB
:106620008DBE59C080917504813A09F054C08091A3
:10663000E800877F8093E8008091E80080FFFCCF2E
:10664000F701818540C080917504813209F043C013
:106650008091E800877F8093E8002EDC909177049A
:1066600081E0911101C080E0F701818734C0809101
:106670007504813281F58091E800877F8093E8007E
:106680001BDC8091770490917804882736E09695FA
:1066900087953A95E1F7F701958784871CC080912B
:1066A0007504813AC1F48091E800877F8093E80007
:1066B0008091E80080FFFCCFF70184859585969551
:1066C0008795969587958093F1008091E8008E7765
:1066D0008093E800F1DB0FB6F894BEBE0FBEADBEEE
:1066E0000F900F900F90DF91CF911F910F91FF901E
:1066F000EF90DF90CF90BF90AF909F908F907F9062
:106700006F900895FC01399627E0DF011D922A95CC
:10671000E9F721E0FC01218724EF31E03587248768
:1067200023E0248361E001968ACB5F926F927F928F
:106730008F929F92AF92BF92CF92DF92EF92FF9291
:106740000F931F93CF93DF9300D01F92CDB7DEB787
:106750007C01ADB6BEB680917404843009F086C069
:106760008091E4009091E500F70122853385281798
:10677000390709F47BC081818F708093E900809193
:10678000E80085FF73C08DB69EB6408550E08DB79A
:106790009EB7841B950B0FB6F8949EBF0FBE8DBF9E
:1067A000EDB7FEB731966F011B821A82198260E045
:1067B00070E0CF010BD18E010F5F1F4F960140E0BB
:1067C000BE016D5F7F4FC70192D8582EF7018485B7
:1067D0009585892B29F011E086859785892B09F00D
:1067E00010E0F701668077806114710481F04981BF
:1067F0005A81B301C601D4D001E0892B09F400E02D
:10680000F701408550E0B601C301D7D001C000E0D8
:1068100089819A81892BF1F0511004C0011102C0C5
:1068200010FF18C0F7018485958597878687818139
:106830008F708093E9008B8181118093F1006981D1
:106840007A8140E050E0C6017CD98091E8008E77E3
:106850008093E8008091E4009091E500F701938730
:1068600082870FB6F8949EBE0FBE8DBE0FB6F89409
:10687000BEBE0FBEADBE0F900F900F90DF91CF91B7
:106880001F910F91FF90EF90DF90CF90BF90AF904E
:106890009F908F907F906F905F90089508950E94D1
:1068A00070250E94E0160E9474280E9459260E94BA
:1068B00015230E94A51D0E94AF270E9406150E9465
:1068C000D5280E946B2AFDD80E94C2269DCB0E942B
:1068D000772A8091D6018823E1F30C94942A3EDB39
:1068E000F8942FEF87EA91E6215080409040E1F73D
:1068F00000C000008091D601823011F40E948725EB
:106900008091D601882359F09CE088E10FB6F89475
:10691000A895809360000FBE90936000FFCF08950C
:10692000BDDFBDDFD4DFDBDF80E090E00895991BA1
:1069300079E004C0991F961708F0961B881F7A9576
:10694000C9F780950895AA1BBB1B51E107C0AA1F78
:10695000BB1FA617B70710F0A61BB70B881F991F00
:106960005A95A9F780959095BC01CD01089597FBA4
:10697000072E16F4009406D077FD08D0E4DF07FC5C
:1069800005D03EF4909581959F4F0895709561953F
:106990007F4F0895EE0FFF1F0590F491E02D0994AD
:1069A000FB01DC0104C08D910190801921F441505C
:1069B0005040C8F7881B990B0895FB01DC0102C009
:1069C00001900D9241505040D8F70895DC0101C06C
:1069D0006D9341505040E0F70895F999FECF92BD74
:1069E00081BDF89A992780B50895A8E1B0E042E00A
:1069F00050E01CC0DC01CB0102C02D9105D04150FC
:106A00005040D8F70895262FF999FECF1FBA92BDAE
:106A100081BD20BD0FB6F894FA9AF99A0FBE01967F
:106A20000895F1DF272FF0CFDC01CB01FC01F999AC
:106A3000FECF06C0F2BDE1BDF89A319600B40D92CA
:0C6A400041505040B8F70895F894FFCF83
:106A4C000283010000016001010000000000000051
:106A5C000182020000016101020000000000000040
:106A6C000384030000016301030000000000000028
:106A7C0000811200000166011200000000000000FD
:106A8C002400250023002700280026002A002B00C4
:0E6A9C0029002D002E002C00300031002F00AC
:00000001FF
